:020000040800F2
:100000000050002051050008890400088F040008F2
:10001000950400089B040008A104000800000000EB
:10002000000000000000000000000000A70400081D
:10003000B304000800000000BF040008CB0400085F
:100040009905000899050008990500089905000818
:100050009905000899050008990500089905000808
:1000600099050008990500089905000899050008F8
:1000700099050008990500089905000899050008E8
:1000800099050008990500089905000899050008D8
:1000900099050008990500089905000899050008C8
:1000A00099050008990500089905000899050008B8
:1000B00099050008990500089905000899050008A8
:1000C0009905000899050008990500089905000898
:1000D0009905000899050008990500089905000888
:1000E000990500089905000899050008000000001E
:1000F0000000000000000000000000000000000000
:0C01000000000000000000005FF808F1A3
:10010C0010B5054C237833B9044B13B10448AFF345
:10011C0000800123237010BD70000020000000003F
:10012C00D420000808B5034B1BB103490348AFF3B7
:10013C00008008BD0000000074000020D4200008DE
:10014C0090B58FB000AF00F023FA00F06FF800F01C
:10015C00D3F800F0A7F800237B6300233B6300F087
:10016C006FFAF8620623BB62012208212C4800F0CA
:10017C0014FD1FE010212A4800F0F8FC0346002B68
:10018C0018D13B6B01333B63642000F063FA00F041
:10019C0057FA786200BF1021214800F0E7FC0346B3
:1001AC00002B07D100F04CFA02467B6AD31AB3F548
:1001BC00FA6FF0D33B6B042BDCD93B6B012B15D9BD
:1001CC003B6B4FF4616202FB03F3A3F56163BA6A04
:1001DC0002FB03F400F034FA0246FB6AD21A13460F
:1001EC009B0013445B00B4FBF3F37B6300237B6045
:1001FC0007F1080300221A605A609A60DA601A61EB
:10020C005A611A83381D7B6B3A6B064901F0E2FA8E
:10021C00391D64231E22044801F03FF99BE700BFFF
:10022C0000080140EC2000088C00002080B590B044
:10023C0000AF07F1180328220021184601F0C2FA7A
:10024C003B1D00221A605A609A60DA601A61022320
:10025C00BB610123BB621023FB6200237B6307F1AC
:10026C001803184600F0B2FC0346002B01D000F036
:10027C0081F80F237B600023BB600023FB6000230D
:10028C003B6100237B613B1D0021184600F020FFE1
:10029C000346002B01D000F06DF800BF4037BD467F
:1002AC0080BD000080B500AF114B124A1A60104B94
:1002BC004FF4E1325A600E4B00229A600C4B002234
:1002CC00DA600B4B00221A61094B0C225A61084B65
:1002DC0000229A61064B0022DA61054801F090F881
:1002EC000346002B01D000F045F800BF80BD00BFD5
:1002FC008C0000200038014080B586B000AF07F1BB
:10030C00080300221A605A609A60DA60174B9B69E6
:10031C00164A43F004039361144B9B6903F00403E6
:10032C007B607B6800220C21114800F036FC0C230A
:10033C00BB600123FB6000233B6102237B6107F15F
:10034C00080319460A4800F08DFA1023BB600023FD
:10035C00FB6002233B6107F108031946044800F0D7
:10036C0081FA00BF1837BD4680BD00BF00100240A7
:10037C000008014080B400AF72B600BFFEE7000079
:10038C0080B485B000AF154B9B69144A43F0010350
:10039C009361124B9B6903F00103BB60BB680F4B6D
:1003AC00DB690E4A43F08053D3610C4BDB6903F0DD
:1003BC0080537B607B680A4B5B68FB60FB6823F0B7
:1003CC00E063FB60FB6843F00073FB60044AFB686E
:1003DC00536000BF1437BD4680BC7047001002400C
:1003EC000000014080B588B000AF786007F11003C1
:1003FC0000221A605A609A60DA607B681B681C4A9B
:10040C00934231D11B4B9B691A4A43F4804393614D
:10041C00184B9B6903F48043FB60FB68154B9B698D
:10042C00144A43F004039361124B9B6903F00403D9
:10043C00BB60BB684FF400733B6102237B610323F9
:10044C00FB6107F1100319460B4800F00BFA4FF44F
:10045C0080633B6100237B610023BB6107F11003C8
:10046C001946054800F0FEF900BF2037BD4680BD97
:10047C0000380140001002400008014080B400AF79
:10048C00FEE780B400AFFEE780B400AFFEE780B4B7
:10049C0000AFFEE780B400AFFEE780B400AF00BF52
:1004AC00BD4680BC704780B400AF00BFBD4680BC69
:1004BC00704780B400AF00BFBD4680BC704780B5AC
:1004CC0000AF00F0ABF800BF80BD000080B586B077
:1004DC0000AF7860144A154BD31A7B617B693B6182
:1004EC00134B1B68002B02D1114B124A1A60104B94
:1004FC001A687B6813443A699A4207D201F038F9BA
:10050C0003460C221A604FF0FF3309E0084B1B68BE
:10051C00FB60074B1A687B681344054A1360FB6841
:10052C0018461837BD4680BD00500020000400005E
:10053C00D0000020E800002080B400AF00BFBD4612
:10054C0080BC70470C480D490D4A002302E0D4587A
:10055C00C4500433C4188C42F9D30A4A0A4C002301
:10056C0001E013600432A242FBD3FFF7E5FF01F078
:10057C0005F9FFF7E5FD7047000000207000002032
:10058C006821000870000020E8000020FEE7000051
:10059C0080B500AF084B1B68074A43F0100313608B
:1005AC00032000F02BF90F2000F008F8FFF7E8FE0D
:1005BC000023184680BD00BF0020024080B582B0E9
:1005CC0000AF7860124B1A68124B1B7819464FF427
:1005DC007A73B3FBF1F3B2FBF3F3184600F035F981
:1005EC000346002B01D001230EE07B680F2B0AD8A9
:1005FC00002279684FF0FF3000F00BF9064A7B6857
:10060C001360002300E0012318460837BD4680BD67
:10061C0000000020080000200400002080B400AF7F
:10062C00054B1B781A46054B1B681344034A136091
:10063C0000BFBD4680BC704708000020D4000020DD
:10064C0080B400AF024B1B681846BD4680BC704797
:10065C00D400002080B584B000AF7860FFF7F0FFC5
:10066C00B8607B68FB60FB68B3F1FF3F05D00A4BB9
:10067C001B781A46FB681344FB6000BFFFF7E0FFD2
:10068C000246BB68D31AFA689A42F7D800BF00BF7B
:10069C001037BD4680BD00BF0800002080B485B077
:1006AC0000AF78607B6803F00703FB600C4BDB68E2
:1006BC00BB60BA684FF6FF031340BB60FB681A02BD
:1006CC00BB68134343F0BF6343F40033BB60044A7D
:1006DC00BB68D36000BF1437BD4680BC704700BFF9
:1006EC0000ED00E080B400AF044BDB681B0A03F0A4
:1006FC0007031846BD4680BC704700BF00ED00E004
:10070C0080B483B000AF03463960FB7197F90730B2
:10071C00002B0ADB3B68DAB20C4997F9073012015F
:10072C00D2B20B4483F800230AE03B68DAB20849E2
:10073C00FB7903F00F03043B1201D2B20B441A767F
:10074C0000BF0C37BD4680BC704700BF00E100E025
:10075C0000ED00E080B489B000AFF860B9607A6059
:10076C00FB6803F00703FB61FB69C3F10703042B70
:10077C0028BF0423BB61FB690433062B02D9FB6938
:10078C00033B00E000237B614FF0FF32BB6902FAB0
:10079C0003F3DA43BB681A407B699A404FF0FF3190
:1007AC007B6901FA03F3D9437B680B40134318466A
:1007BC002437BD4680BC704780B582B000AF7860EE
:1007CC007B68013BB3F1807F01D301230FE00A4A20
:1007DC007B68013B53600F214FF0FF30FFF790FF18
:1007EC00054B00229A60044B07221A60002318461E
:1007FC000837BD4680BD00BF10E000E080B582B078
:10080C0000AF78607868FFF749FF00BF0837BD4636
:10081C0080BD80B586B000AF0346B9607A60FB73CB
:10082C0000237B61FFF75EFF78617A68B9687869AD
:10083C00FFF790FF024697F90F3011461846FFF765
:10084C005FFF00BF1837BD4680BD80B582B000AFDA
:10085C0078607868FFF7B0FF034618460837BD4646
:10086C0080BD000080B48BB000AF7860396000238D
:10087C007B6200233B6269E101227B6A02FA03F38B
:10088C00FB613B681B68FA691340BB61BA69FB6981
:10089C009A4240F058813B685B689A4A93425ED01A
:1008AC00984A934275D8984A934258D0964A9342A4
:1008BC006FD8964A934252D0944A934269D8944A3C
:1008CC0093424CD0924A934263D8924A934246D078
:1008DC00904A93425DD8122B2AD8122B59D801A2D8
:1008EC0052F823F06B090008450900085709000865
:1008FC00990900089F0900089F0900089F09000832
:10090C009F0900089F0900089F0900089F0900081B
:10091C009F0900089F0900089F0900089F0900080B
:10092C009F0900089F0900084D090008610900088B
:10093C00794A934213D02CE03B68DB683B6229E098
:10094C003B68DB6804333B6224E03B68DB680833BC
:10095C003B621FE03B68DB680C333B621AE03B6890
:10096C009B68002B02D104233B6213E03B689B681D
:10097C00012B05D108233B627B68FA691A6109E0F7
:10098C0008233B627B68FA695A6103E000233B62EF
:10099C0000E000BFBB69FF2B01D87B6801E07B68DE
:1009AC0004337B61BB69FF2B02D87B6A9B0002E09E
:1009BC007B6A083B9B003B617B691A680F213B6992
:1009CC0001FA03F3DB431A40396A3B6901FA03F37A
:1009DC001A437B691A603B685B6803F08053002BF9
:1009EC0000F0B1804D4B9B694C4A43F0010393617D
:1009FC004A4B9B6903F00103BB60BB68484A7B6AA6
:100A0C009B08023352F82330FB607B6A03F003032C
:100A1C009B000F2202FA03F3DB43FA681340FB60DE
:100A2C007B68404A934213D07B683F4A93420DD077
:100A3C007B683E4A934207D07B683D4A934201D182
:100A4C00032306E0042304E0022302E0012300E078
:100A5C0000237A6A02F0030292009340FA6813436F
:100A6C00FB602F497B6A9B080233FA6841F823200C
:100A7C003B685B6803F48033002B06D02D4B1A685F
:100A8C002C49BB6913430B6006E02A4B1A68BB69FF
:100A9C00DB43284913400B603B685B6803F400336D
:100AAC00002B06D0234B5A682249BB6913434B6079
:100ABC0006E0204B5A68BB69DB431E4913404B6070
:100ACC003B685B6803F48013002B06D0194B9A68C3
:100ADC001849BB6913438B6006E0164B9A68BB69D7
:100AEC00DB43144913408B603B685B6803F40013D1
:100AFC00002B21D00F4BDA680E49BB691343CB6036
:100B0C0021E000BF00003210000031100000221064
:100B1C000000211000001210000011100010024003
:100B2C000000014000080140000C01400010014091
:100B3C0000140140000401400B4BDA68BB69DB4335
:100B4C0009491340CB607B6A01337B623B681A68AE
:100B5C007B6A22FA03F3002B7FF48EAE00BF00BF3A
:100B6C002C37BD4680BC70470004014080B485B072
:100B7C0000AF78600B467B807B689A687B8813405B
:100B8C00002B02D00123FB7301E00023FB73FB7BE2
:100B9C0018461437BD4680BC704780B483B000AF94
:100BAC0078600B467B8013467B707B78002B03D0E0
:100BBC007A887B681A6103E07B881A047B681A6167
:100BCC0000BF0C37BD4680BC7047000080B586B0B6
:100BDC0000AF78607B68002B01D1012372E27B6847
:100BEC001B6803F00103002B00F08780924B5B68BD
:100BFC0003F00C03042B0CD08F4B5B6803F00C033D
:100C0C00082B12D18C4B5B6803F48033B3F5803F17
:100C1C000BD1894B1B6803F40033002B6CD07B6821
:100C2C005B68002B68D101234CE27B685B68B3F5F1
:100C3C00803F06D1804B1B687F4A43F4803313609E
:100C4C002EE07B685B68002B0CD17B4B1B687A4ACF
:100C5C0023F480331360784B1B68774A23F480238A
:100C6C0013601DE07B685B68B3F5A02F0CD1724B51
:100C7C001B68714A43F4802313606F4B1B686E4AE8
:100C8C0043F4803313600BE06B4B1B686A4A23F40C
:100C9C0080331360684B1B68674A23F4802313600E
:100CAC007B685B68002B13D0FFF7CAFC386108E047
:100CBC00FFF7C6FC02463B69D31A642B01D9032308
:100CCC0000E25D4B1B6803F40033002BF0D014E002
:100CDC00FFF7B6FC386108E0FFF7B2FC02463B694F
:100CEC00D31A642B01D90323ECE1534B1B6803F497
:100CFC000033002BF0D100E000BF7B681B6803F0D1
:100D0C000203002B63D04C4B5B6803F00C03002BED
:100D1C000BD0494B5B6803F00C03082B1CD1464BE2
:100D2C005B6803F48033002B16D1434B1B6803F034
:100D3C000203002B05D07B681B69012B01D001231A
:100D4C00C0E13D4B1B6823F0F8027B685B69DB005C
:100D5C00394913430B603AE07B681B69002B20D0A8
:100D6C00364B01221A60FFF76BFC386108E0FFF785
:100D7C0067FC02463B69D31A022B01D90323A1E17C
:100D8C002D4B1B6803F00203002BF0D02A4B1B6881
:100D9C0023F0F8027B685B69DB00274913430B6087
:100DAC0015E0264B00221A60FFF74AFC386108E078
:100DBC00FFF746FC02463B69D31A022B01D90323E9
:100DCC0080E11D4B1B6803F00203002BF0D17B6804
:100DDC001B6803F00803002B3AD07B689B69002B3F
:100DEC0019D0174B01221A60FFF72AFC386108E072
:100DFC00FFF726FC02463B69D31A022B01D90323C9
:100E0C0060E10D4B5B6A03F00203002BF0D0012074
:100E1C0000F0D8FA1CE00A4B00221A60FFF710FC15
:100E2C0038610FE0FFF70CFC02463B69D31A022B2A
:100E3C0008D9032346E100BF0010024000004242E3
:100E4C0080044242924B5B6A03F00203002BE9D10F
:100E5C007B681B6803F00403002B00F0A6800023C2
:100E6C00FB758B4BDB6903F08053002B0DD1884B4A
:100E7C00DB69874A43F08053D361854BDB6903F010
:100E8C008053BB60BB680123FB75824B1B6803F46A
:100E9C008073002B18D17F4B1B687E4A43F4807300
:100EAC001360FFF7CDFB386108E0FFF7C9FB024682
:100EBC003B69D31A642B01D9032303E1754B1B68DF
:100ECC0003F48073002BF0D07B68DB68012B06D118
:100EDC006F4B1B6A6E4A43F0010313622DE07B6873
:100EEC00DB68002B0CD16A4B1B6A694A23F00103A7
:100EFC001362674B1B6A664A23F0040313621CE0FF
:100F0C007B68DB68052B0CD1614B1B6A604A43F094
:100F1C00040313625E4B1B6A5D4A43F001031362C8
:100F2C000BE05B4B1B6A5A4A23F001031362584BCC
:100F3C001B6A574A23F0040313627B68DB68002B9F
:100F4C0015D0FFF77DFB38610AE0FFF779FB02460D
:100F5C003B69D31A41F28832934201D90323B1E0A1
:100F6C004B4B1B6A03F00203002BEED014E0FFF78F
:100F7C0067FB38610AE0FFF763FB02463B69D31A53
:100F8C0041F28832934201D903239BE0404B1B6A08
:100F9C0003F00203002BEED1FB7D012B05D13C4B62
:100FAC00DB693B4A23F08053D3617B68DB69002B00
:100FBC0000F08780364B5B6803F00C03082B61D084
:100FCC007B68DB69022B46D1334B00221A60FFF79A
:100FDC0037FB386108E0FFF733FB02463B69D31A55
:100FEC00022B01D903236DE0294B1B6803F000731E
:100FFC00002BF0D17B681B6AB3F5803F08D1244BE2
:10100C005B6823F400327B689B68214913434B6077
:10101C001F4B5B6823F474127B68196A7B685B6AEC
:10102C000B431B4913434B601B4B01221A60FFF708
:10103C0007FB386108E0FFF703FB02463B69D31A54
:10104C00022B01D903233DE0114B1B6803F0007305
:10105C00002BF0D035E0104B00221A60FFF7F0FAAD
:10106C00386108E0FFF7ECFA02463B69D31A022B11
:10107C0001D9032326E0064B1B6803F00073002BF9
:10108C00F0D11EE07B68DB69012B07D1012319E04D
:10109C000010024000700040600042420B4B5B6845
:1010AC00FB60FB6803F480327B681B6A9A4206D1B2
:1010BC00FB6803F470127B685B6A9A4201D00123CF
:1010CC0000E0002318461837BD4680BD00100240D2
:1010DC0080B584B000AF786039607B68002B01D19B
:1010EC000123D0E06A4B1B6803F007033A689A426D
:1010FC0010D9674B1B6823F0070265493B68134303
:10110C000B60634B1B6803F007033A689A4201D0EB
:10111C000123B8E07B681B6803F00203002B20D08E
:10112C007B681B6803F00403002B05D0594B5B68EC
:10113C00584A43F4E06353607B681B6803F0080370
:10114C00002B05D0534B5B68524A43F460535360F9
:10115C00504B5B6823F0F0027B689B684D4913434E
:10116C004B607B681B6803F00103002B40D07B684D
:10117C005B68012B07D1474B1B6803F40033002B32
:10118C0015D101237FE07B685B68022B07D1414BB3
:10119C001B6803F00073002B09D1012373E03D4B56
:1011AC001B6803F00203002B01D101236BE0394BC8
:1011BC005B6823F003027B685B68364913434B6022
:1011CC00FFF73EFAF8600AE0FFF73AFA0246FB68CE
:1011DC00D31A41F28832934201D9032353E02D4BA9
:1011EC005B6803F00C027B685B689B009A42EBD156
:1011FC00274B1B6803F007033A689A4210D2244B22
:10120C001B6823F0070222493B6813430B60204BF9
:10121C001B6803F007033A689A4201D0012332E0BD
:10122C007B681B6803F00403002B08D0194B5B6828
:10123C0023F4E0627B68DB68164913434B607B68E0
:10124C001B6803F00803002B09D0124B5B6823F4D6
:10125C0060527B681B69DB000E4913434B6000F046
:10126C0021F802460B4B5B681B0903F00F030A497C
:10127C00CB5C22FA03F3094A1360094B1B6818462E
:10128C00FFF79CF9002318461037BD4680BD00BF00
:10129C000020024000100240142100080000002031
:1012AC000400002090B48AB000AF294B3C1D0FCB3A
:1012BC0084E80F0040F201233B800023FB610023F4
:1012CC00BB6100237B6200237B6100233B62214BCB
:1012DC005B68FB61FB6903F00C03042B02D0082B49
:1012EC0003D02BE01C4B3B622BE0FB699B0C03F007
:1012FC000F0328333B4413F8243C7B61FB6903F454
:10130C008033002B12D0134B5B685B0C03F0010392
:10131C0028333B4413F8283CBB617B690E4A03FB22
:10132C0002F2BB69B2FBF3F37B6204E07B690B4A0C
:10133C0002FB03F37B627B6A3B6202E0064B3B627F
:10134C0000BF3B6A18462837BD4690BC704700BFAB
:10135C00042100080010024000127A0000093D0030
:10136C0080B400AF024B1B681846BD4680BC70476A
:10137C000000002080B500AFFFF7F2FF0246054BDE
:10138C005B681B0A03F007030349CB5C22FA03F3E7
:10139C00184680BD001002402421000880B500AF23
:1013AC00FFF7DEFF0246054B5B68DB0A03F0070321
:1013BC000349CB5C22FA03F3184680BD00100240AF
:1013CC002421000880B485B000AF78600A4B1B68FC
:1013DC000A4AA2FB03235B0A7A6802FB03F3FB6055
:1013EC0000BFFB685A1EFA60002BF9D100BF00BF8A
:1013FC001437BD4680BC704700000020D34D6210EE
:10140C0080B582B000AF78607B68002B01D10123DE
:10141C003FE07B6893F83D30DBB2002B06D17B6854
:10142C00002283F83C207868FEF7DCFF7B682422DE
:10143C0083F83D207B681B68DA687B681B6822F4A4
:10144C000052DA60786800F005F97B681B681A694D
:10145C007B681B6822F490421A617B681B685A698E
:10146C007B681B6822F02A025A617B681B68DA6869
:10147C007B681B6842F40052DA607B6800221A64B5
:10148C007B68202283F83D207B68202283F83E2055
:10149C00002318460837BD4680BD80B58AB002AF20
:1014AC00F860B9603B601346FB8000237B61FB68EE
:1014BC0093F83D30DBB2202B7CD1BB68002B02D0E3
:1014CC00FB88002B01D1012375E0FB6893F83C30BD
:1014DC00012B01D102236EE0FB68012283F83C2032
:1014EC00FB6800221A64FB68212283F83D20FFF779
:1014FC00A7F87861FB68FA889A84FB68FA88DA8422
:10150C00FB689B68B3F5805F08D1FB681B69002BF7
:10151C0004D10023FB61BB68BB6103E0BB68FB61CA
:10152C000023BB61FB68002283F83C202AE03B6867
:10153C0000937B6900228021F86800F040F8034694
:10154C00002B01D0032336E0FB69002B0BD1BB69C8
:10155C001B881A46FB681B68C2F308025A60BB69F9
:10156C000233BB6107E0FB691A78FB681B685A60A1
:10157C00FB690133FB61FB68DB8C9BB2013B9AB2CC
:10158C00FB68DA84FB68DB8C9BB2002BCFD13B6809
:10159C0000937B6900224021F86800F010F80346A4
:1015AC00002B01D0032306E0FB68202283F83D20AA
:1015BC00002300E0022318462037BD4680BD80B5CD
:1015CC0084B000AFF860B9603B601346FB712CE04F
:1015DC00BB69B3F1FF3F28D0BB69002B07D0FFF7E5
:1015EC002FF802463B68D31ABA699A421DD2FB689F
:1015FC001B68DA68FB681B6822F4D072DA60FB683F
:10160C001B685A69FB681B6822F001025A61FB686F
:10161C00202283F83D20FB68202283F83E20FB68C3
:10162C00002283F83C2003230FE0FB681B681A6838
:10163C00BB681340BA689A420CBF01230023DBB28B
:10164C001A46FB799A42C3D0002318461037BD4680
:10165C0080BD000080B584B000AF78607B681B68EB
:10166C001B6923F440517B68DA687B681B680A436A
:10167C001A617B689A687B681B691A437B685B6993
:10168C001343BB607B681B68DB6823F4B05323F007
:10169C000C037A681268B9680B43D3607B681B68CB
:1016AC005B6923F440717B689A697B681B680A4309
:1016BC005A617B681B682C4A934203D1FFF76EFE7C
:1016CC00F86002E0FFF756FEF860FA6813469B00DC
:1016DC0013449A001A447B685B689B00B2FBF3F3DB
:1016EC00224AA2FB03235B091901FA6813469B00EB
:1016FC0013449A001A447B685B689B00B2FBF3F2BC
:10170C001A4BA3FB02035B09642000FB03F3D31AFF
:10171C001B013233154AA2FB03235B0903F0F003D0
:10172C001944FA6813469B0013449A001A447B68C8
:10173C005B689B00B2FBF3F20C4BA3FB02035B094F
:10174C00642000FB03F3D31A1B013233074AA2FBBC
:10175C0003235B0903F00F027B681B680A449A6041
:10176C0000BF1037BD4680BD003801401F85EB51CE
:10177C00014B1868704700BF0C00002070B50026A4
:10178C000C4D0D4C641BA410A64209D100F09CFC1E
:10179C0000260A4D0A4C641BA410A64205D170BD4C
:1017AC0055F8043B98470136EEE755F8043B98474B
:1017BC000136F2E760210008602100086021000872
:1017CC006421000803460244934200D1704703F899
:1017DC00011BF9E70EB46FF0004100B59CB01DABD6
:1017EC0002900690079104910848094953F8042B7C
:1017FC000591006802A9019300F068F80022029B91
:10180C001A701CB05DF804EB03B070470C0000209C
:10181C000802FFFF2DE9F0478E6882469E420C4677
:10182C0090461F4638D88A8912F4906F32D02568BA
:10183C0009690133A5EB010965694B4405EB4505C5
:10184C0005EBD5756D109D4238BF1D46530531D53E
:10185C00294600F06FFB064650B90C234FF0FF30C1
:10186C00CAF80030A38943F04003A381BDE8F08798
:10187C004A46216900F0CEFAA38923F4906343F021
:10188C008003A38126614E4426603E466561A5EB2C
:10189C000905A560BE4200D93E4632464146206845
:1018AC0000F0C6FAA36800209B1BA3602368334496
:1018BC002360DBE72A4600F0B1FB06460028E1D1A5
:1018CC005046216900F0CEFAC7E700002DE9F04F31
:1018DC0098468B8907461B060D4614469DB00ED5BF
:1018EC000B6963B9402100F025FB2860286120B901
:1018FC000C233B604FF0FF30D1E040236B610023A1
:10190C00099320238DF8293030234FF00109CDF8AD
:10191C000C80DFF8A4818DF82A3023469A4613F800
:10192C00012B0AB1252AF9D1BAEB040B0BD05B467B
:10193C00224629463846FFF76DFF013000F0AA8099
:10194C00099A5A4409929AF80030002B00F0A280B0
:10195C0000234FF0FF32CDE905230AF1010A04936D
:10196C0007938DF853301A935446052214F8011B33
:10197C00514800F041FA049AD8B9D00644BF20234C
:10198C008DF85330110744BF2B238DF853309AF840
:10199C0000302A2B15D0544600204FF00A0C079A21
:1019AC00214611F8013B303B092B4ED9B0B10792BF
:1019BC0014E0A0EB080309FA03F31343A2460493C3
:1019CC00D2E7039B191D1B680391002BBBBF5B4225
:1019DC0042F0020207930793B8BF049223782E2B90
:1019EC000CD163782A2B35D1039B02341A1D1B684A
:1019FC000392002BB8BF4FF0FF330593DFF8BCA068
:101A0C0003225046217800F0F7F940B14023A0EBB7
:101A1C000A0003FA00F0049B01340343049314F806
:101A2C00011B062226488DF8281000F0E5F9002845
:101A3C0038D0244B1BBB039B073323F0070308331D
:101A4C000393099B3344099367E70C4601200CFB75
:101A5C000232A5E700234FF00A0C19460134059316
:101A6C00204610F8012B303A092A03D9002BC5D097
:101A7C000591C3E7044601230CFB0121F0E703ABFE
:101A8C0000932A463846104B04A9AFF30080421C41
:101A9C000646D6D1AB895B063FF52CAF09981DB035
:101AAC00BDE8F08F03AB00932A463846064B04A9D9
:101ABC0000F07CF8EBE700BF2C2100083221000875
:101ACC003621000800000000211800082DE9F0471D
:101ADC00164699468A680B6907469342B8BF134667
:101AEC00336091F843200C46DDF820800AB10133B5
:101AFC0033602368990642BF33680233336025682C
:101B0C0015F0060506D104F1190AE36832689B1A30
:101B1C00AB4228DC94F84320131E226818BF012323
:101B2C0092062DD44946384604F14302C047013091
:101B3C0020D02368E56803F00603042B18BF0025AA
:101B4C0032684FF00006A36808BFAD1A226908BFBF
:101B5C0025EAE5759342C4BF9B1AED181A34B542B9
:101B6C001AD1002008E00123524649463846C047A6
:101B7C00013003D14FF0FF30BDE8F0870135C4E7E9
:101B8C003020E11881F843005A1C94F84510224487
:101B9C00023382F84310C5E70123224649463846F2
:101BAC00C0470130E6D00136D9E700002DE9FF47E8
:101BBC000F7E9146782F80460C469A460C9D01F17B
:101BCC00430207D8622F0AD8002F00F0D980582F73
:101BDC0000F0A48004F1420584F842703AE0A7F1C9
:101BEC006303152BF6D801A151F823F0511C000802
:101BFC00651C0008E11B0008E11B0008E11B000844
:101C0C00E11B0008651C0008E11B0008E11B000833
:101C1C00E11B0008E11B0008731D0008951C00085F
:101C2C00551D0008E11B0008E11B0008951D00086C
:101C3C00E11B0008951C0008E11B0008E11B0008D3
:101C4C005D1D00082B681A1D1B682A6004F14205F3
:101C5C0084F842300123A4E020682968060601F1CB
:101C6C0004030AD50E682B60002E03DA2D2376426E
:101C7C0084F843300A235E4819E00E6810F0400FD8
:101C8C002B6018BF36B2EFE72B682068191D29604E
:101C9C00010601D51E6802E04606FBD51E886F2F93
:101CAC000CBF08230A235248002184F843106568AE
:101CBC00002DA8BF2168A560A4BF21F004012160FC
:101CCC000EB9002D4DD01546B6FBF3F103FB116791
:101CDC00C75D05F8017D3746BB420E46F4D9082B8B
:101CEC000BD12368DE0708D5236961689942DEBFF2
:101CFC00302305F8013C05F1FF35521B22614B46A0
:101D0C0021464046CDF800A003AAFFF7DFFE0130C4
:101D1C004CD14FF0FF3004B0BDE8F087344881F867
:101D2C0045702968236851F8046B29601D0614D589
:101D3C00DF0744BF43F0200323601EB9236823F060
:101D4C00200323601023AFE7236843F020032360B4
:101D5C007823284884F84530E3E7590648BFB6B2E3
:101D6C00E6E71546BBE72B682668181D61692860F5
:101D7C0035061B6801D5196002E07006FBD5198089
:101D8C00002315462361BAE72B6800211A1D2A602F
:101D9C001D686268284600F02FF808B1401B60608F
:101DAC0063682361002384F84330A8E72A46494638
:101DBC0040462369D0470130ABD023689B0713D42E
:101DCC00E068039B9842B8BF1846A4E7012332464B
:101DDC0049464046D04701309BD00135E368039912
:101DEC005B1AAB42F2DCEBE7002504F11906F5E7D0
:101DFC003D2100084E210008034610B5C9B202442B
:101E0C009342184601D1002003E0047801338C4240
:101E1C00F6D110BD0A44914200F1FF3300D1704756
:101E2C0010B511F8014B914203F8014FF9D110BDD7
:101E3C00884210B501EB020402D98442234607D82C
:101E4C00431EA14208D011F8012B03F8012FF8E72B
:101E5C00014602448A4200D110BD13F8014D02F82C
:101E6C00014DF7E738B50546002940D051F8043C40
:101E7C000C1F002BB8BFE41800F010F91C4A1368B3
:101E8C0033B9636014602846BDE8384000F00CB9E3
:101E9C00A34208D9206821188B4201BF19685B68DE
:101EAC0009182160EDE71A465B680BB1A342FAD919
:101EBC0011685018A0420BD120680144501883427D
:101ECC001160E0D118685B68014411605360DAE777
:101EDC0002D90C232B60D6E7206821188B4201BF56
:101EEC0019685B680918216063605460CBE738BDE2
:101EFC00D800002070B50E4E0C463168054611B95D
:101F0C0000F0BCF830602146284600F0B7F8431CBE
:101F1C000AD0C41C24F00304A04207D0211A28467E
:101F2C0000F0ACF8013001D14FF0FF34204670BD09
:101F3C00DC0000202DE9F041CD1C25F0030508350F
:101F4C000C2D38BF0C25002D074601DBA94205D905
:101F5C000C2300263B603046BDE8F0812E4E00F08D
:101F6C009DF833681C4634BB29463846FFF7C2FF40
:101F7C00431C04464DD134682646002E40D12368BC
:101F8C003146384604EB030800F078F880453AD126
:101F9C00216803356D1A25F0030508350C2D38BF63
:101FAC000C2538462946FFF7A5FF01302BD02368B6
:101FBC002B4423600EE02268521B1ED40B2A16D928
:101FCC006119A342256018BF5960636808BF31606E
:101FDC0062514B60384604F10B0600F065F826F0B0
:101FEC000706231DF21AB6D09B1BA350B3E76268F9
:101FFC00A3420CBF32605A60ECE723466468B2E738
:10200C0034467668B9E70C2338463B6000F04CF850
:10201C00A1E72560DEE700BFD80000202DE9F041E4
:10202C00804614460E4621B91146BDE8F041FFF733
:10203C0081BF2AB9FFF716FF25462846BDE8F08177
:10204C0000F038F88442074602D8B4EB500F12D88F
:10205C0021464046FFF76EFF05460028EDD0BC42F6
:10206C002246314628BF3A46FFF7D4FE3146404659
:10207C00FFF7F8FEE1E73546DFE7000038B500234F
:10208C00054D044608462B60FEF720FA431C02D18E
:10209C002B6803B1236038BDE0000020014800F03C
:1020AC0011B800BFE4000020014800F00CB800BFDC
:1020BC00E400002051F8043C181F002BBCBF0B5847
:1020CC00C018704770477047F8B500BFF8BC08BC23
:1020DC009E467047F8B500BFF8BC08BC9E467047DA
:1020EC006D61673D25640A73706565643D25646B9D
:1020FC006D2F68720A000000020304050607080928
:10210C000A0B0C0D0E0F1010000000000000000058
:10211C000102030406070809000000000102030481
:10212C00232D302B2000686C4C00656667454647B4
:10213C000030313233343536373839414243444537
:10214C0046003031323334353637383961626364A6
:04215C0065660000B4
:042160003101000841
:042164000D01000861
:102168000024F4001000000001000000100000200E
:102178000000000000000000000000000000000057
:102188000000000000000000000000000000000047
:102198000000000000000000000000000000000037
:1021A8000000000000000000000000000000000027
:1021B8000000000000000000000000000000000017
:1021C8000000000000000000000000000000000007
:040000050800055199
:00000001FF
